{
  "abi": [
    {
      "inputs": [],
      "stateMutability": "nonpayable",
      "type": "constructor"
    },
    {
      "inputs": [
        {
          "internalType": "address",
          "name": "initiator",
          "type": "address"
        },
        {
          "internalType": "address",
          "name": "token",
          "type": "address"
        },
        {
          "internalType": "uint256",
          "name": "amount",
          "type": "uint256"
        },
        {
          "internalType": "uint256",
          "name": "fee",
          "type": "uint256"
        },
        {
          "internalType": "bytes",
          "name": "data",
          "type": "bytes"
        }
      ],
      "name": "onFlashLoan",
      "outputs": [
        {
          "internalType": "bytes32",
          "name": "",
          "type": "bytes32"
        }
      ],
      "stateMutability": "nonpayable",
      "type": "function"
    }
  ],
  "bytecode": {
    "object": "0x608060405234801561001057600080fd5b50600080546001600160a01b03191673ea47b64e1bfccb773a0420247c0aa0a3c1d2e5c590811790915560405163095ea7b360e01b8152600481018290526c0c9f2c9cd04674edea40000000602482015263095ea7b3906044016020604051808303816000875af1158015610089573d6000803e3d6000fd5b505050506040513d601f19601f820116820180604052508101906100ad91906100b3565b506100dc565b6000602082840312156100c557600080fd5b815180151581146100d557600080fd5b9392505050565b610173806100eb6000396000f3fe608060405234801561001057600080fd5b506004361061002b5760003560e01c806323e30c8b14610030575b600080fd5b61006961003e366004610097565b7f439148f0bbc682ca079e46d6e2c2f0c1e3b820f1a291b069d8882abf8cf18dd99695505050505050565b60405190815260200160405180910390f35b80356001600160a01b038116811461009257600080fd5b919050565b60008060008060008060a087890312156100b057600080fd5b6100b98761007b565b95506100c76020880161007b565b94506040870135935060608701359250608087013567ffffffffffffffff808211156100f257600080fd5b818901915089601f83011261010657600080fd5b81358181111561011557600080fd5b8a602082850101111561012757600080fd5b602083019450809350505050929550929550929556fea26469706673582212203d9615ac8777ba355a0a443ab8b8bcdf673ddadaa647bd70d86d0e1b5c743d5e64736f6c634300080d0033",
    "linkReferences": {}
  }
}