{
  "abi": [
    {
      "inputs": [],
      "name": "flashBalance",
      "outputs": [
        {
          "internalType": "uint256",
          "name": "",
          "type": "uint256"
        }
      ],
      "stateMutability": "view",
      "type": "function"
    },
    {
      "inputs": [
        {
          "internalType": "address",
          "name": "lender",
          "type": "address"
        },
        {
          "internalType": "address",
          "name": "token",
          "type": "address"
        },
        {
          "internalType": "uint256",
          "name": "value",
          "type": "uint256"
        }
      ],
      "name": "flashBorrow",
      "outputs": [],
      "stateMutability": "nonpayable",
      "type": "function"
    },
    {
      "inputs": [
        {
          "internalType": "address",
          "name": "lender",
          "type": "address"
        },
        {
          "internalType": "address",
          "name": "token",
          "type": "address"
        },
        {
          "internalType": "uint256",
          "name": "value",
          "type": "uint256"
        }
      ],
      "name": "flashBorrowAndReenter",
      "outputs": [],
      "stateMutability": "nonpayable",
      "type": "function"
    },
    {
      "inputs": [
        {
          "internalType": "address",
          "name": "lender",
          "type": "address"
        },
        {
          "internalType": "address",
          "name": "token",
          "type": "address"
        },
        {
          "internalType": "uint256",
          "name": "value",
          "type": "uint256"
        }
      ],
      "name": "flashBorrowAndSteal",
      "outputs": [],
      "stateMutability": "nonpayable",
      "type": "function"
    },
    {
      "inputs": [],
      "name": "flashFee",
      "outputs": [
        {
          "internalType": "uint256",
          "name": "",
          "type": "uint256"
        }
      ],
      "stateMutability": "view",
      "type": "function"
    },
    {
      "inputs": [],
      "name": "flashToken",
      "outputs": [
        {
          "internalType": "address",
          "name": "",
          "type": "address"
        }
      ],
      "stateMutability": "view",
      "type": "function"
    },
    {
      "inputs": [],
      "name": "flashUser",
      "outputs": [
        {
          "internalType": "address",
          "name": "",
          "type": "address"
        }
      ],
      "stateMutability": "view",
      "type": "function"
    },
    {
      "inputs": [],
      "name": "flashValue",
      "outputs": [
        {
          "internalType": "uint256",
          "name": "",
          "type": "uint256"
        }
      ],
      "stateMutability": "view",
      "type": "function"
    },
    {
      "inputs": [
        {
          "internalType": "address",
          "name": "user",
          "type": "address"
        },
        {
          "internalType": "address",
          "name": "token",
          "type": "address"
        },
        {
          "internalType": "uint256",
          "name": "value",
          "type": "uint256"
        },
        {
          "internalType": "uint256",
          "name": "fee",
          "type": "uint256"
        },
        {
          "internalType": "bytes",
          "name": "data",
          "type": "bytes"
        }
      ],
      "name": "onFlashLoan",
      "outputs": [
        {
          "internalType": "bytes32",
          "name": "",
          "type": "bytes32"
        }
      ],
      "stateMutability": "nonpayable",
      "type": "function"
    }
  ],
  "bytecode": {
    "object": "0x608060405234801561001057600080fd5b5061064e806100206000396000f3fe608060405234801561001057600080fd5b50600436106100935760003560e01c8063d3cf70b311610066578063d3cf70b314610107578063d3eaa4d81461011a578063e07df5b41461012d578063ebbc8d2414610136578063f9d5bbfc1461013f57600080fd5b806323e30c8b14610098578063249ab761146100be57806377ee0855146100c75780637df3cc91146100f2575b600080fd5b6100ab6100a636600461040d565b610152565b6040519081526020015b60405180910390f35b6100ab60035481565b6002546100da906001600160a01b031681565b6040516001600160a01b0390911681526020016100b5565b6101056101003660046104b3565b6102c1565b005b6101056101153660046104b3565b610361565b6101056101283660046104b3565b610374565b6100ab60045481565b6100ab60005481565b6001546100da906001600160a01b031681565b600080610161838501856104ef565b600180546001600160a01b038b81166001600160a01b03199283161790925560028054928b169290911682179055600388905560048781556040516370a0823160e01b81523091810191909152919250906370a0823190602401602060405180830381865afa1580156101d8573d6000803e3d6000fd5b505050506040513d601f19601f820116820180604052508101906101fc9190610517565b600081905561020a90610388565b6001600160a01b03871663095ea7b333610224888a610530565b6040516001600160e01b031960e085901b1681526001600160a01b03909216600483015260248201526044016020604051808303816000875af115801561026f573d6000803e3d6000fd5b505050506040513d601f19601f820116820180604052508101906102939190610556565b507f439148f0bbc682ca079e46d6e2c2f0c1e3b820f1a291b069d8882abf8cf18dd998975050505050505050565b600060026040516020016102d59190610578565b60408051601f1981840301815290829052632e7ff4ef60e11b825291506001600160a01b03851690635cffe9de906103179030908790879087906004016105a0565b6020604051808303816000875af1158015610336573d6000803e3d6000fd5b505050506040513d601f19601f8201168201806040525081019061035a9190610556565b5050505050565b6000806040516020016102d59190610578565b600060016040516020016102d59190610578565b6103cd8160405160240161039e91815260200190565b60408051601f198184030181529190526020810180516001600160e01b031663f5b1bba960e01b1790526103d0565b50565b80516a636f6e736f6c652e6c6f67602083016000808483855afa5050505050565b80356001600160a01b038116811461040857600080fd5b919050565b60008060008060008060a0878903121561042657600080fd5b61042f876103f1565b955061043d602088016103f1565b94506040870135935060608701359250608087013567ffffffffffffffff8082111561046857600080fd5b818901915089601f83011261047c57600080fd5b81358181111561048b57600080fd5b8a602082850101111561049d57600080fd5b6020830194508093505050509295509295509295565b6000806000606084860312156104c857600080fd5b6104d1846103f1565b92506104df602085016103f1565b9150604084013590509250925092565b60006020828403121561050157600080fd5b81356003811061051057600080fd5b9392505050565b60006020828403121561052957600080fd5b5051919050565b6000821982111561055157634e487b7160e01b600052601160045260246000fd5b500190565b60006020828403121561056857600080fd5b8151801515811461051057600080fd5b602081016003831061059a57634e487b7160e01b600052602160045260246000fd5b91905290565b600060018060a01b038087168352602081871681850152856040850152608060608501528451915081608085015260005b828110156105ed5785810182015185820160a0015281016105d1565b828111156105ff57600060a084870101525b5050601f01601f19169190910160a0019594505050505056fea264697066735822122016665ada49d45152cec103ec54d6252367cb0785bf3830f47ae7cc7b45e2fa5f64736f6c634300080d0033",
    "linkReferences": {}
  }
}